:020000040800F2
:10000000000002208D0600088106000835720008F5
:100010008106000881060008810600080000000033
:100020000000000000000000000000008106000841
:10003000810600080000000081060008B971000870
:100040008106000881060008810600088106000874
:100050008106000881060008810600088106000864
:10006000810600088106000881060008396F000833
:10007000456F000881060008516F00085D6F000899
:1000800091FB0008E963000881060008810600086A
:100090008106000881060008810600088106000824
:1000A0008106000881060008810600088106000814
:1000B00035ED000841ED00084DED00081D64000815
:1000C000810600082964000881060008D5E50008BB
:1000D000E1E50008C5F90008F1F9000825FA000873
:1000E0008106000881060008000000008106000863
:1000F00081060008810600088106000881060008C4
:10010000810600088106000859ED0008EDE50008A9
:1001100059FA00088DFA00088106000881060008D7
:100120005D0800088106000811E6000845E60008A1
:10013000C5FB00088106000881060008810600084A
:1001400000000000000000000000000000000000AF
:10015000810600088106000881060008C1FA00082F
:100160003564000881060008C9710008ED710008B7
:100170008106000811720008810600088106000847
:100180008106000881060008F5FA000829FB00082E
:10019000F9E5000805E60008810600088106000868
:1001A0008106000881060008810600088106000813
:1001B000916B00088106000881060008810600088E
:1001C0008106000881060008455D0008515D0008B1
:1001D000810600085D5D00088106000881060008B0
:1001E00081060008810600088106000881060008D3
:1001F00081060008810600088106000881060008C3
:1002000081060008810600088106000881060008B2
:1002100081060008810600088106000881060008A2
:100220008106000881060008810600080000000021
:100230008106000881060008000000008106000811
:100240008106000881060008810600088106000872
:100250008106000881060008810600088106000862
:100260008106000881060008810600088106000852
:1002700081060008810600085DFB00080000000000
:1002800081060008810600088106000800000000C1
:080290000000000081060008D7
:1002A00010B5054C237833B9044B13B10448AFF3B0
:1002B00000800123237010BD780700240000000097
:1002C000D851010808B5034B1BB103490348AFF3EC
:1002D000008008BD000000007C070024D851010800
:1002E00001F0FF01102A2BDB10F0070F08D010F8E7
:1002F000013B013A8B422DD010F0070F42B3F6D1EB
:10030000F0B441EA012141EA014122F007047FF003
:1003100000070023F0E80256083C85EA010586EA5A
:10032000010685FA47F5A3FA87F586FA47F6A5FA96
:1003300087F68EB9EED1F0BC01F0FF0102F00702A2
:1003400032B110F8013B013A83EA010313B1F8D14D
:100350000020704701387047002D06BF354603382E
:10036000073815F0010F07D1013015F4807F02BF67
:10037000013015F4C03F0130F0BC0138704700BFB8
:10038000034613F8012B002AFBD1181A01387047D5
:1003900053B94AB9002908BF00281CBF4FF0FF31EC
:1003A0004FF0FF3000F06AB9ADF1080C6DE904CEF2
:1003B00000F006F8DDF804E0DDE9022304B0704740
:1003C0002DE9F047089D0C46002B4ED194468C45F4
:1003D0008646B2FA82F262D94AB1C2F12003914054
:1003E00020FA03F30CFA02FC194300FA02FE4FEA6A
:1003F0001C471FFA8CF6B1FBF7F44FEA1E4307FBCC
:10040000141143EA014304FB06F199420AD91CEB9B
:10041000030304F1FF3080F01281994240F20F8112
:10042000023C6344591A1FFA8EF3B1FBF7F007FB45
:10043000101143EA014300FB06F69E420AD91CEB69
:10044000030300F1FF3180F0FC809E4240F2F9800E
:10045000634402389B1B40EA044000211DB1D34095
:100460000022C5E90032BDE8F0878B4205D90DB105
:10047000C5E9000100210846F5E7B3FA83F1002938
:1004800046D1A34202D39042C0F0F080861A64EBBA
:1004900003030120002DE6D0C5E90063E3E7002A4D
:1004A00040F09080A1EB0C044FEA1C481FFA8CF737
:1004B0000121B4FBF8F64FEA1E4308FB164443EA59
:1004C000044307FB06F0984208D91CEB030306F12E
:1004D000FF3402D2984200F2CD8026461C1A1FFA41
:1004E0008EF3B4FBF8F008FB104443EA044300FB2E
:1004F00007F79F4208D91CEB030300F1FF3402D237
:100500009F4200F2B0802046DB1B40EA0640A5E790
:10051000C1F120068B4022FA06F71F4320FA06FCA1
:1005200004FA01F343EA0C03F44000FA01F8380C32
:100530004FEA1349B4FBF0FE1FFA87FC00FB1E4490
:1005400049EA04440EFB0CF9A14502FA01F20AD96A
:100550003C190EF1FF3A80F08480A14540F2818081
:10056000AEF1020E3C44A4EB09041FFA83F9B4FB7C
:10057000F0F300FB134449EA044403FB0CFCA445DC
:1005800007D93C1903F1FF3067D2A44565D9023B76
:100590003C4443EA0E40A0FB0293A4EB0C049C42B3
:1005A000CE469C4651D34ED055B1B8EB0E0364EB0A
:1005B0000C0404FA06F6CB401E43CC40C5E90064A7
:1005C000002150E7C2F1200320FA03F10CFA02FCEB
:1005D00024FA03F394400C434FEA1C4800FA02FE4D
:1005E0001FFA8CF7B3FBF8F008FB1031230C43EA39
:1005F000014300FB07F1994208D91CEB030300F10A
:10060000FF362CD299422AD9023863445B1AA4B22D
:10061000B3FBF8F108FB113344EA034401FB07F391
:10062000A34208D91CEB040401F1FF3613D2A34204
:1006300011D902396444E41A41EA004139E7044619
:10064000F0E6084606E7C845AED2B9EB020E63EB0A
:10065000070C0138A8E73146EDE7034699E7304635
:10066000D4E7D6467FE7634402384DE70646234683
:1006700008460FE7023E634430E700BF704700BF03
:10068000684620F007018D46FEE7000008B50C4BD8
:100690000C4903E051F8042B43F8042B0A4A934217
:1006A000F8D10A4B02E0002243F8042B084A934297
:1006B000F9D107F021F812F039FB00F00DF8FEE750
:1006C0000000002410520108740700247807002459
:1006D0007864002470470000F0B589B000214748D5
:1006E00004F0CCFE00240194029403940494059435
:1006F00006940794424D434B2B604FF480236B606C
:10070000AC600126EE6008232B612C750227AF61D7
:100710006C62AC626C752C77EC622C636C6385F850
:100720003840284600F0AEFC40F2FF724FF0011155
:10073000284600F0B3FD344B019306230293039344
:1007400040F2FF7304930423059306948DF81D4033
:100750000DEB0301284600F0C3F82C4B01930C234A
:10076000029301A9284600F0BBF8294B1E805F8048
:10077000304605F021FA274805F0BAF9204E3046F8
:1007800000F00CFB304600F0A7F880B2204D288026
:10079000304600F003FB304600F09EF880B26880DF
:1007A0001D4BB3F8601040F6E44202FB01F12A88C9
:1007B00092B2B1FBF2F16A8892B201FB02F29208A6
:1007C0001648A0FB0202188CC0EB521202EB820208
:1007D0001201B3F840301B1A92FBF3F21E3210489C
:1007E00005F086F984F00104044D2146284604F002
:1007F00085FD0A21284604F07DFDBFE7840800241A
:1008000020080024006002580000B8CF000084CB0C
:1008100094070024D04C010800E8F11F9F00EE0966
:10082000E84C010800B583B00B4BD3F8E02042F050
:100830008072C3F8E020D3F8E03003F080730193B6
:10084000019B002211467F2000F08CFD7F2000F0EC
:10085000C5FD03B05DF804FB0044025808B502482A
:1008600002F01AF808BD00BFA807002408B5174811
:10087000002303600B210171FF2242718171C2715B
:10088000017242728172C272017342738173C273C8
:100890004361036280F8281080F82920C362036353
:1008A000436380F83C1080F83D2003644364836414
:1008B00080F8581080F85920C365036643660367C3
:1008C000034A044911F054FB08BD00BF840800240A
:1008D00000000024D50600080368186C704700BFAC
:1008E000F0B5002283B0019290F85020012A00F068
:1008F0002B8101240268034680F850409068450728
:1009000009D55A6D012042F020025A65002283F871
:10091000502003B0F0BD0D68002D4FEA95600DDB4F
:10092000C5F31306002E00F09A8095FAA5F515B1CF
:10093000B5FA85F5AC40D5692C43D4614C684FF0CD
:100940001F0C02F1300E00F01F00A50904EA0C0490
:1009500005F00C050CFA04FCA0405EF8054024EA02
:100960000C0C4CEA00004EF80500906810F0040FE3
:10097000906801D100071AD59068C70715D4CE68D2
:100980000C6806F01807B748D2F8C050F840C4F316
:100990001307204025EA07052843C2F8C000B248E3
:1009A000864200F09180002C5BDB0020AEE70C68F3
:1009B00002F1140C4FF0070E8E68E50DC4F30454D9
:1009C00005F004050EFA04FE06FA04F45CF80500CE
:1009D00020EA0E0020434CF80500A4484D69006849
:1009E00000F07040B0F1805FD06868D010F0100F58
:1009F000D06864D0400800F0080085400E6908689F
:100A0000042E00F0A48002F1600C00F0F8445CF8C1
:100A1000260000F00040204328434CF826004C7E7E
:100A20000D69A4F101045CF82500B4FA84F420F007
:100A30000040640940EAC4704CF82500087E0D6946
:100A4000A0F10100146905F01F05B0FA80F024F44C
:100A5000F0444009C002A840204310618CE7844064
:100A600069E783498A4200F0B18001F580718A42CA
:100A700000F0AC8001F1C0517E4D01F584418868E1
:100A8000AE68F6073FF53DAF7B4E00F0E077B4422D
:100A900000F0FA80794EB44200F0D580784DAC4237
:100AA00083D1400281D4734882427FF47EAF8A684A
:100AB00022F0E0723A4342F480028A6075E7C0F3A4
:100AC00082004000854099E7002F5CD094FAA4F0A2
:100AD000002800F09480B0FA80F6013606F01F0579
:100AE000092D40F28C80B0FA80F5B0060126013560
:100AF00000F0F84094FAA4F405F01F0506FA05F595
:100B00002843002C00F0E280B4FA84F4A5190324F1
:100B10006FF01D0605F01F0514FB0564240544F065
:100B20000074204302F114060727C50DC0F30450DA
:100B300005F004058740745924EA07048F6887404C
:100B40003C4374510C682EE7022003B0F0BD156ED3
:100B5000840605F0F845B5EB806F32D0506E00F09A
:100B6000F840844223D0906E00F0F840844223D0B5
:100B7000D06E00F0F84084427FF4FEAED06E20F0DC
:100B80000040D066F8E6A40E0120013404F01F05F1
:100B9000A406A84004F0F844092D40EA040005EB3F
:100BA00045044ED91E3C240544F00074B9E7506E4C
:100BB00020F000405066D6E7906E20F0004090662E
:100BC000D6E7106E20F000401066C7E7284D2D498B
:100BD00005F58075886855F8F86CAD68ED073FF548
:100BE00090AEF7073FF58DAE234DAC423FF4DDAE3E
:100BF000224DAC423FF4D9AE00F0E0774EE794FAD4
:100C0000A4F0002869D0B0FA80F00130800600F02E
:100C1000F84094FAA4F5002D5DD0B5FA85F50126CB
:100C2000013505F01F0506FA05F5284394FAA4F4EA
:100C3000002C4DD0B4FA84F4013404F01F0404EB0A
:100C4000440424056DE7C4013FF5AFAEAA427FF42A
:100C5000ACAE8A6822F0E0723A4342F080728A6059
:100C6000A3E600BFFFFF0F000000FF470010005C7D
:100C70000020024000600258000084CB000052C7F0
:100C80000000B8CF0023024006023FF58EAEAA4214
:100C90007FF48BAE8A68124822F0E0723A4342F445
:100CA00000028A6002680F499209A1FB02129209B0
:100CB000013252000192019A002A3FF476AE019A65
:100CC000013A0192019A002AF9D16EE6064C28E712
:100CD0004FF4401425E70225A7E74FF0806098E71E
:100CE00050000024632D3E05000050FE03689A6802
:100CF000D10701D5002070479968234A114270B589
:100D000004462FD19968214A0A4042F001029A60B4
:100D100007F03AFA23681E4A054693422CD002F5A2
:100D20008072934228D002F1C05202F58442926848
:100D30001A68D20714D4154E9A68D00704D49A685A
:100D4000324042F001029A6007F01EFA431B022B68
:100D5000236802D91A68D10704D51A68D207EBD5DF
:100D6000002070BD636D012043F010036365A36D27
:100D700043F00103A36570BD064A9268D606D7D03A
:100D8000054A9342D4D1EBE73F000080C0FFFF7FCC
:100D9000002002400023024000210240384A03683C
:100DA000934270B5044649D002F58072934245D013
:100DB000344A96689D6815F0040545D194F8503082
:100DC000012B41D00123204684F85030FFF78EFFDD
:100DD00000283BD1636D06F01F062B4A1A4023689A
:100DE00042F480726265294A934232D01946626D9C
:100DF00022F480126265626D12F480523DD0A26DC1
:100E000022F00602A2651C228B421A604FF00002FB
:100E100084F8502021D040F22122F240D5071CD482
:100E2000636D43F480136365CB689B0105D5636DE7
:100E300023F4405343F48053636570BD144A9668AD
:100E40009D6815F00405B9D0022070BD84F850509B
:100E500070BD0B49002ECED1C9E7DA68920105D5E5
:100E6000626D22F4405242F4805262659968094AE8
:100E70000A4042F004029A6070BDA265C3E700BF59
:100E80000020024000630258FEF0FFFF00210240F4
:100E900000230240C0FFFF7F38B503689A689507BA
:100EA00002D59B68002038BD9A68D407FAD59A68A5
:100EB000044602F00D02012A09D0636D012043F0BF
:100EC00010036365A36D43F00103A36538BD986803
:100ED00003210D4A024042F002029A60196007F0B5
:100EE00053F9236805469B68D90703D4DAE79B6862
:100EF000DB07D7D507F048F9401B23680228F6D94D
:100F00009A68D207F3D5D8E7C0FFFF7F38B5564AB5
:100F100004460368934225D002F58072934221D0A3
:100F2000524B9B6813F4403F21D002F02DFD6368C3
:100F30000546B3F5003F00F08680B3F5403F6FD023
:100F4000B3F5803F7FD007F037F941F203039842B1
:100F50004BD8474A236895422AD99A6842F480724E
:100F60009A6038BD434B9B6813F4403FDDD14FF48A
:100F70000020002103F0F6FF63680546B3F5101F5B
:100F80006BD008D8B3F5E01F54D016D9B3F5001FC5
:100F9000D9D14509D7E7B3F5201F49D0B3F5301FA4
:100FA000D1D107F009F941F2030398422ED8236802
:100FB0009A6822F480729A6038BDB3F5801F06D01B
:100FC0000AD9B3F5A01F02D0B3F5C01FBBD19B0C4B
:100FD0005B00B5FBF3F5B6E7B3F5002FF7D023F4CC
:100FE0000022B2F5802FF2D0ADE7234A2368954264
:100FF00011D9224A95421FD9214A95429A682ED882
:1010000022F4407242F400729A6038BD1A4BB3EB7E
:10101000152F236810D39A6822F440729A6038BD65
:10102000850807F0C9F841F203039842DDD890E73C
:10103000C50988E7050986E79A6822F4407242F4F8
:1010400080729A6038BD1B0CB5FBF3F507F0B4F85D
:1010500041F203039842C8D87BE7850973E742F45D
:1010600040729A6038BD00BF002002400063025801
:10107000002D31010023024021BCBE0041787D01DA
:1010800081F0FA0270B5002382B00193002800F0CD
:10109000A980456D0446002D00F0AA80226893685F
:1010A0009E0003D59168714B0B4093609368DD00FF
:1010B00016D46F4B6F491B6890689B09A1FB031303
:1010C0006D499B090140013341F0805191600193CA
:1010D000019B2BB1019B013B0193019B002BF9D19B
:1010E0009368D80000F18280636D012543F01003FE
:1010F0006365A36D2B43A365936813F0040F636DC1
:101100006CD1D9066AD4636D23F4817343F0020372
:1011100063659368DB070CD4584B9A4200F08180DA
:1011200003F580739A427CD0554B9B68D90740F1F8
:10113000898007F041F841F20303A1689842237FB8
:101140005CD894F815C01A04206B42EA4C32024372
:101150000A43012B03D1236A013B42EA4342636AFB
:1011600023B103F47873A16A0B431A4323684549FA
:10117000D86801401143D9609A6812F0040F9A6848
:101180001CD112071AD4D8683F4A217D024042EA96
:101190008132E16A0A43DA6094F83820012A53D098
:1011A0001A6922F001021A611A692046616B22F065
:1011B00070420A431A61FFF7A9FE2368E268012A18
:1011C00027D01A6B22F00F021A63636D284623F0B2
:1011D000030343F00103636502B070BD636D43F028
:1011E000100363650125284602B070BD002583E722
:1011F000FFF718FBA56584F850504FE71029A0D1E0
:10120000617D1A0442EA4132216B0A4342F01C021A
:101210009FE7196BA26921F00F01013A0A431A6393
:10122000D3E7164A194B92689B68DE0781D4D00732
:101230003FF57FAF164A9368616823F47C130B4334
:10124000936076E7134AF6E7D4E90F12666C01392A
:101250001869324342EA0142A16C0A430E49014037
:101260000A4342F001021A619EE700BFC0FFFF5F20
:1012700050000024632D3E05C0FFFF6F0020024098
:101280000060025803C0F0FFFCBFFFFF00210240D6
:1012900000230240006302581EF800FCF0B5002352
:1012A00083B0019390F85030012B40D001230446C5
:1012B0000E46154680F85030FFF7EEFDE8B9676D31
:1012C00005F080421B4B06F4803125683B4043F01B
:1012D00002036365184BAE68334013430B4343F07E
:1012E0000043AB60AB68154A002B0FDB636D23F046
:1012F000030343F00103636503E0636D43F01003F0
:101300006365002384F8503003B0F0BD019B0133C6
:101310000193019B9342E5D3636D0022012023F0EA
:10132000120384F8502043F010036365ECE70220B9
:1013300003B0F0BDFDEEFFFFC0FFFE3F00F8C32588
:1013400006494FF6FF0C0002054BCA6800F4E06046
:1013500002EA0C0210430343CB60704700ED00E04B
:101360000000FA051A4BDB68C3F3022300B5C3F192
:10137000070E03F1040CBEF1040F28BF4FF0040E5A
:10138000BCF1060F1AD9A3F1030C4FF0FF3303FA97
:101390000CF322EA03024FF0FF33002803FA0EF3A6
:1013A00021EA030303FA0CF343EA02034FEA0313AF
:1013B000DBB206DB074A13545DF804FB00229446B7
:1013C000E9E700F00F00044A13545DF804FB00BF86
:1013D00000ED00E000E400E014ED00E0002807DB91
:1013E000012300F01F01034A40098B4042F82030DE
:1013F000704700BF00E100E000280CDB4309012238
:1014000000F01F0004492033824041F82320BFF33D
:101410004F8FBFF36F8F704700E100E0431EB3F1C1
:10142000807F01D3012070474FF0E0220020054962
:101430004FF0F00C5361072381F823C090611361D2
:10144000704700BF00ED00E0BFF35F8F044B002149
:101450005A6A22F480325A62C3F89410704700BF6F
:1014600000ED00E0064B40F00100C3F894005A6A1A
:1014700042F480325A62BFF34F8FBFF36F8F7047D1
:1014800000ED00E0174A4378C2F89830017821B3A4
:10149000436800B5C2F89C30C37A90F80CC01B06B4
:1014A00090F80FE043EA0C7390F80AC00B43817B7D
:1014B00043EACC4390F80DC043EA8C4390F809C04E
:1014C00043EA4143017A43EA0E4343EA0C2343EAE9
:1014D0004103C2F8A0305DF804FBC2F89C10C2F8CA
:1014E000A010704700ED00E0704700BF08B5FFF79F
:1014F000FBFF08BD3649024603688B4233D01831E2
:10150000591AB1FA81F1490969BB324883423ED088
:10151000183083423ED01830834234D01830834292
:101520003BD0183083423ED0183083422AD000F599
:101530005670834235D028498B4231D018318B42C6
:1015400034D018318B4234D018318B4234D018311A
:101550008B4234D018318B4234D018318B4234D086
:1015600023F0FF0011E0DBB21C491D48103BA1FB3A
:10157000031310B41B091B4CE15C5DF8044BC2E97A
:101580001601704716211848D165906570471021E3
:101590001348F9E716211248F6E706211248F3E747
:1015A00006211248F0E710210F48EDE710210F48FF
:1015B000EAE716210D48E7E700210D48E4E7062198
:1015C0000B48E1E710210A48DEE716210848DBE76F
:1015D000100002404000024028040240ABAAAAAA20
:1015E00000000240F04C01080400024000040240E8
:1015F000040402400268274B274930B4274D284C89
:10160000AA4218BF9A420CBF012300238A4208BF96
:1016100043F001032831A24208BF43F001032834FC
:101620008A4208BF43F001032831A24208BF43F0B9
:1016300001038A4208BF43F00103D1B213B9194B29
:101640009A4212D1A1F108031749184AA1FB0313CA
:101650000121174C02EB1312C3F3041392009940BB
:101660008166C0E9182430BC7047A1F1100311490C
:10167000114C1144A4FB0343A8294FEA131300D8CB
:1016800008330E4A03F01F0401211A44A1400C4CF8
:101690009200E5E708540258305402581C5402588E
:1016A0004454025894540258CDCCCCCC0096001629
:1016B00080580258F0FBFDBFABAAAAAA0082001016
:1016C000800802402DE9F04F054683B006F05CFD2E
:1016D000002D00F003822C680646654B9C4200F00A
:1016E000BC8018339C4200F0B88018339C4200F054
:1016F000B48018339C4200F0B08018339C4200F054
:10170000AC8018339C4200F0A88018339C4200F053
:10171000A48018339C4200F0A08003F556739C42CD
:1017200000F09B8018339C4200F0978018339C4255
:1017300000F0938018339C4200F08F8018339C4255
:1017400000F08B8018339C4200F0878018339C4255
:1017500000F0838018339C427FD04649464A474B6D
:10176000A4EB0109A21A464FA4EB0308B9FA89F9C0
:101770001433B2FA82F24FEA5919B8FA88F8A4EB96
:10178000030A52094FEA5818E71BBAFA8AFA49EADB
:1017900002013C4EB7FA87F73B484FEA5A1A48EA2B
:1017A0000101A61BA4EB000B7F094AEA0101B6FA6E
:1017B00086F61430BBFA8BFB39437609231A4FEABD
:1017C0005B1B3143B3FA83F35BEA01014FEA531326
:1017D000019302D1002B00F0D4810221DFF8B4C0C4
:1017E00085F83510002185F83410216801EA0C0CC9
:1017F000A968402900F0C281A1F18001B1FA81F10C
:1018000049094FEA813E2969E868C9081F4B0092DF
:1018100041EAD0006969234440EAD100A96940EA5D
:10182000D100E96940EAD100296A40EA111141EA90
:101830000C014EEA010121601549A1FB0301284674
:1018400009098900E965FFF755FEE96D009A01F085
:101850001F040121A1404160E2E0022385F83530F8
:10186000002385F83430236823F0010323601AE055
:1018700010000240085402581C54025830540258B8
:10188000585402586C54025880540258F8ABFDA7C3
:10189000CDCCCCCC0F00FEFF06F076FC801B0528DB
:1018A00000F217812C682368DF07F5D4D5E90230F0
:1018B00029690343AA6920680B4369690B43E969F5
:1018C00013430B43B2490140286A0343B1480B4319
:1018D000696A042900F017810668AF483040B0F10A
:1018E000005F80F0D5802360636923F007030B431A
:1018F00063612846FFF7FEFDEA6D3F23A74902F02A
:101900001F02A74FA74E9340A74AE71BA61B836061
:10191000A4EB0209A54B1432B9FA89F9A448A4EB47
:101920000308A44BA21A4FEA59199C4218BF8C42D3
:1019300003F11803B2FA82F2B8FA88F80CBF012159
:1019400000215209B7FA87F79C4208BF41F0010114
:1019500018334FEA5818A4EB000B9C4208BF41F023
:10196000010118337F09B6FA86F69C4208BF41F0A0
:1019700001011833143076099C4208BF41F001017F
:101980001833BBFA8BFB9C4208BF41F001011833AE
:101990004FEA5B1B9C4208BF41F0010103F55673FF
:1019A0009C4208BF41F0010118339C4208BF41F03E
:1019B000010118339C4208BF41F0010118339C42D9
:1019C00008BF41F0010118339C4208BF41F00101FA
:1019D00018339C4208BF41F0010118339C4208BFF4
:1019E00041F0010118339C4208BF41F00101724BE4
:1019F00049EA0101A4EB030A231A1143BAFA8AFA4D
:101A0000B3FA83F348EA01014FEA5A1A5B094AEA3A
:101A100001010193394331435BEA010100D17BB3FA
:101A200028460092FFF7E6FDA968009A80295ED05B
:101A300068682B6EC4B20138D5E919C107281C604B
:101A4000CCF804105AD849EA0A09019B601E48EAFA
:101A5000090847EA08073E4343EA060A5BEA0A0A1E
:101A600002D1002A00F08580544A55492244920050
:101A7000012383400020C5E91B216B6710604B6088
:101A800000200123686585F8353003B0BDE8F08F8C
:101A90006868A0F129061F2E24D94F38032801D8E1
:101AA00043F4801323600429636923F0070343EAA6
:101AB00001037FF41DAFE86AA96A0B4300283FF4D5
:101AC00017AF8ABB01294FD031F002027FF410AF6B
:101AD00032E0202203236A6585F83530012003B007
:101AE000BDE8F08F3748F040C007DBD5D8E70023CA
:101AF000A96ED5E918026B60036051600023C5E947
:101B00001B336B67BCE70768D5E90B060643334315
:101B1000214E3E40B6F1005FBAD22360636923F0E4
:101B2000070343F00403C7E7B2F5005F0DD00229B5
:101B300005D903297FF4DCAEC2017FF5D9AE40227E
:101B400001236A6585F83530C8E703293FF6D0AE32
:101B500001A252F821F000BF3F1B0008391B00080A
:101B60003F1B0008691B0008B0F1C07F7FF4C0AEC6
:101B7000E5E7154A15492244920079E74FF0100E27
:101B800041E6402203236A6585F83530A6E700BFA9
:101B90003F8010FE0010005C0000FFFF10000240BC
:101BA000585402586C540258085402583054025881
:101BB0008054025828000240445402583F960016B0
:101BC000405902583F00C0C33F8200104009024004
:101BD000002800F032822DE9F04F90F8344083B0B5
:101BE000012C00F02682012480F8344090F8354022
:101BF000012C09D04FF400620023426580F8343094
:101C0000012003B0BDE8F08F02247D4EDFF8F8819B
:101C100080F8354000247B4D44650468DFF8EC9182
:101C2000444518BFB442DFF8F8C1866D0CBF4FF0D1
:101C3000010B4FF0000B01964C4514BFDE464BF0F4
:101C4000010EAC4218BF64450CBF0125002540F0D1
:101C5000E980D4F800C02CF0010CD0E91976C4F862
:101C600000C0D0F86CC07E60BCF1000F02D0D0E99B
:101C70001C677760C76D4FF03F08019E07F01F0992
:101C800008FA09F8C6F80880276827F48027276033
:101C900063608368402B00F0D281A160E260002D78
:101CA00040F0A281584A036C944200F00182574AE6
:101CB000944200F00782BBF1000F40F0D781544AF4
:101CC0001946944200F01C82524A944200F04C8221
:101CD0001832944200F0698202F55672944200F084
:101CE00071824D4B9C4200F0CE8218339C4200F032
:101CF000D58218339C4200F0E58218339C4200F0F4
:101D0000FE8218339C4200F00F8318339C4200F08F
:101D1000218318339C4200F04983236823F00E038B
:101D200043F00A03236019B1236843F004032360DE
:101D3000384B374A944218BF9C4202F130020CBF24
:101D400001230023944208BF43F0010302F55672B9
:101D5000944208BF43F001031832944208BF43F095
:101D600001031832944208BF43F001031832944231
:101D700008BF43F001031832944208BF43F0010347
:101D80001832944208BF43F001031832944208BF4E
:101D900043F001031832944208BF43F001031F4A85
:101DA000944208BF43F001031432944208BF43F049
:101DB00001031432944208BF43F0010314329442E9
:101DC00008BF43F001031432944208BF43F00103FB
:101DD0001432944208BF43F001031432944208BF06
:101DE00043F001031432944208BF43F001031BB9CE
:101DF000BEF1000F00F01581D0F86CC000E100BF0B
:101E0000700002402800024040000240580002409A
:101E100088000240A00002402804024008540258F2
:101E200010000240444500F02F814C4500F05481E1
:101E3000BBF1000F40F00681DFF84CC5644500F0AF
:101E40006B810CF1180C644500F07A810CF1180CD0
:101E5000644500F096810CF5567C644500F0BD8128
:101E60000CF1180C644500F005820CF1180C644567
:101E700000F01F820CF1180C644500F02E820CF16A
:101E8000180C644500F032820CF1180C644500F027
:101E900058820CF1180C644500F069820CF1180CA2
:101EA000644500F09082D4F800C02CF0010CC4F816
:101EB00000C0DFF8D8C4644540F0A681D0F86CC0FB
:101EC000D0E919677760BCF1000F3FF4D3AED0E9D9
:101ED0001C677760DFF8B084DFF8B4944C4518BF16
:101EE000444509F118090CBF4FF001084FF00008F4
:101EF0004C4508BF48F0010809F556794C4508BF24
:101F000048F0010809F118094C4508BF48F00108DC
:101F100009F118094C4508BF48F0010809F11809F2
:101F20004C4508BF48F0010809F118094C4508BFA5
:101F300048F0010809F118094C4508BF48F00108AC
:101F400009F118094C4508BF48F00108B8F1000F25
:101F50007FF490AEDFF83C8444453FF48BAEDFF86D
:101F60003884DFF838944C4518BF444509F114090A
:101F70000CBF4FF001084FF000084C4508BF48F077
:101F8000010809F114094C4508BF48F0010809F19E
:101F900014094C4508BF48F0010809F114094C45E3
:101FA00008BF48F0010809F114094C4508BF48F082
:101FB0000108B8F1000F04D1DFF8E483444540F094
:101FC0000D82C66D4FF0010806F01F09019E08FA48
:101FD00009F8C6F8048063608368402B00F0FC8138
:101FE000A160036CE26062E6236823F01E0343F005
:101FF00016032360036C1BB1236843F008032360BE
:10200000036E1A68D20303D51A6842F480721A600C
:10201000BCF1000F05D0DCF8003043F48073CCF83D
:1020200000302368002043F00103236003B0BDE8C3
:10203000F08F022003B0BDE8F08F01207047A2604E
:10204000E1602CE6DFF838A3D0F86490DAF870800D
:10205000D0F86CC028F00108CAF87080866EC9F804
:102060000460BCF1000F7FF402AE03E6C4490A6FBE
:1020700022F01E0242F016020A67002BC0D023682D
:1020800043F00803236053E6DFF8F4A2D0F864902D
:10209000DAF84080D0F86CC028F00108CAF8408017
:1020A000866EC9F80460BCF1000F7FF4E0ADE1E595
:1020B000B3490A6C22F01E0242F016020A64002B99
:1020C000DDD19DE7AE498A6D22F01E0242F0160274
:1020D0008A65002BD3D193E7DFF8A4A2D0F86490EF
:1020E000DAF85880D0F86CC028F00108CAF8588097
:1020F000866EC9F80460BCF1000F7FF4B8ADB9E595
:102100009F49D1F8882022F01E0242F01602C1F841
:102110008820002BB3D173E7DFF864A2D0F8649075
:10212000DAF88880D0F86CC028F00108CAF88880F6
:10213000866EC9F80460BCF1000F7FF4C8AEC9E632
:10214000DFF83CA2D0F86490DAF8A080D0F86CC038
:1021500028F00108CAF8A080866EC9F80460BCF1B6
:10216000000F7FF4B4AEB5E68549D1F8A02022F087
:102170001E0242F01602C1F8A020002B7FF47FAFB0
:102180003EE7DFF8FCA1D0F86490DAF8B880D0F828
:102190006CC028F00108CAF8B880866EC9F80460DF
:1021A000BCF1000F7FF493AE94E67549D1F8B820E6
:1021B00022F01E0242F01602C1F8B820002B7FF474
:1021C0005EAF1DE76F490A6922F01E0242F0160257
:1021D0000A61002B7FF453AF12E7DFF8A881D8F82B
:1021E00010C02CF0010CC8F810C0DFF8B8C164456D
:1021F0003FF464AE0CF1180C64453FF45FAE0CF193
:10220000180C64453FF45AAEDFF89CC164453FF4B6
:1022100055AE0CF1180C64453FF450AE0CF1180C9F
:1022200064453FF44BAE0CF1180C64453FF446AEE8
:10223000DFF864C164456DD00CF1140C644569D0BD
:102240000CF1140C644565D00CF1140C644561D09C
:102250000CF1140C64455DD00CF1140C644559D09C
:102260000CF1140C644555D00CF1140C644551D09C
:10227000016C36E5DFF80C81D8F828C02CF0010C91
:10228000C8F828C01AE63F4A936A23F01E0343F0B9
:102290001603936200297FF4F2AEADE5394A136C60
:1022A00023F01E0343F01603136400297FF4E7AE06
:1022B000A2E5DFF8D080D8F840C02CF0010CC8F8B7
:1022C00040C0FBE52F4A936D23F01E0343F0160335
:1022D000936500297FF4D3AE8EE5DFF8A880D8F8A7
:1022E00058C02CF0010CC8F858C0E2E5DFF8948023
:1022F000D8F870C02CF0010CC8F870C084E7214AEF
:10230000136F23F01E0343F01603136700297FF4B5
:10231000B6AE71E5D0E91967D0F86CC07760BCF152
:10232000000F7FF4D4AD1AE6164AD2F8883023F0B5
:102330001E0343F01603C2F8883000297FF49FAED5
:102340005AE5DFF84080D8F888C02CF0010CC8F8B6
:1023500088C0AEE50B4AD2F8A03023F01E0343F04C
:102360001603C2F8A03000297FF489AE44E5DFF8F7
:102370001480D8F8A0C02CF0010CC8F8A0C034E735
:10238000000002400004024088000240580402405D
:10239000A0000240B8040240085402581C540258DD
:1023A0009454025810040240700402400C4AD2F8BF
:1023B000B83023F01E0343F01603C2F8B8300029EA
:1023C0007FF45DAE18E5DFF81880D8F8B8C02CF0BF
:1023D000010CC8F8B8C008E7A260E160036C6EE4C5
:1023E0000004024070B5044605F0CEFE002C6BD010
:1023F00094F83530022B62D125680646A24B9D42E7
:1024000064D018339D4261D018339D4200F0F180B2
:1024100018339D4200F0188118339D4200F023814B
:1024200018339D4200F0FD8018339D4200F0388142
:1024300018339D4200F0478103F556739D4200F02A
:10244000558118339D4200F0608118339D4200F0A1
:102450006B8118339D4200F0698118339D4200F072
:10246000678118339D4200F0658118339D4200F06A
:10247000658118339D4200F05F812B68834A23F009
:102480000E0395422B6014D0814B9D4211D0143322
:102490009D420ED014339D420BD014339D4208D080
:1024A00014339D4205D014339D4202D014339D4213
:1024B00019D1226E136823F48073136013E0802215
:1024C0000023626584F83430012070BD2B68226ED1
:1024D00023F01E032B606B6923F080036B6113688C
:1024E00023F4807313602B6823F001032B6005E055
:1024F00005F04AFE831B052B00F28A802B68DB0760
:10250000F6D423686049E26D8B42A06D02F01F0291
:102510005ED018318B425BD018318B4258D01831C5
:102520008B4255D018318B4252D018318B424FD04C
:1025300018318B424CD018318B4249D001F556717D
:102540008B4245D018318B4242D018318B423FD05C
:1025500018318B423CD018318B4239D018318B4224
:1025600036D018318B4233D018318B4230D0012114
:102570009140474A416045484649834218BF9342CB
:1025800000F13C000CBF012200228B4208BF42F048
:1025900001022831834208BF42F0010228308B42F9
:1025A00008BF42F001022831834208BF42F0010215
:1025B0008B4208BF42F001026AB9374A93420AD0FF
:1025C00000230122184684F8352084F8343070BD89
:1025D0003F2393408360E36ED4E919215160002BBF
:1025E000EED01A68D4E91C1022F480721A60486098
:1025F000E6E72A4B1A6C22F01E021A645A6D22F08A
:1026000080025A65226E136823F4807313606AE7B0
:10261000202103220023616584F8343084F83520BA
:1026200052E71E4BD3F8882022F01E02C3F8882000
:10263000D3F89C2022F08002C3F89C20226E1368FD
:1026400023F4807313604EE7144B9A6D22F01E0240
:102650009A65DA6E22F08002DA66226E136823F43D
:10266000807313603FE70D4B1A6F22F01E021A674A
:10267000D3F8842022F08002C3F88420226E1368ED
:1026800023F4807313602EE71000024008540258B0
:102690001C5402583054025894540258000002400E
:1026A000274BD3F8A02022F01E02C3F8A020D3F8B5
:1026B000B42022F08002C3F8B420226E136823F401
:1026C000807313600FE71E4BD3F8B82022F01E0270
:1026D000C3F8B820D3F8CC2022F08002C3F8CC2075
:1026E000226E136823F480731360FCE6154B1A699D
:1026F00022F01E021A615A6A22F080025A62226E89
:10270000136823F480731360EDE60E4B9A6A22F08F
:102710001E029A62DA6B22F08002DA63226E13687C
:1027200023F480731360DEE6064B63E7054B8CE70A
:10273000044B99E7034B75E7024BC5E7014BB0E744
:102740000000024000040240002800F0968038B5E6
:1027500090F83530022B40F083800368484A93425A
:1027600000F08280183293427ED0183293427BD0A0
:102770001832934278D01832934275D0183293426F
:1027800072D0183293426FD0183293426CD002F557
:102790005672934268D01832934265D018329342F1
:1027A00062D0183293425FD0183293425CD0183214
:1027B000934259D01832934256D01832934253D094
:1027C000304A314D1968AB4218BF93422F4C21F06B
:1027D0000E0105F13C050CBF012200221960A34245
:1027E00008BF42F0010219682834AB4208BF42F02A
:1027F000010221F00101A34208BF42F0010214349A
:102800001960A34208BF42F0010221498B4208BF70
:1028100042F0010212B91F4A934217D10123846D7D
:10282000D0E917152A6801F01F0122F480728B404D
:102830002A606360C36ED0E91921516033B11A6810
:10284000D0E91C1422F480721A604C60012100222D
:10285000036D80F8351080F8342063B198470AE0A2
:1028600080234365012038BD042280F835201A6892
:1028700022F001021A60002038BD0120704700BF1D
:10288000100002401C540258085402583054025898
:1028900080540258945402582DE9F0410022464BCE
:1028A00082B0846D06461D6801920368434A44481D
:1028B0002768934218BF834221680CBF0120002083
:1028C00000F086801832934200F07C8218329342E6
:1028D00000F078821832934200F0858218329342D9
:1028E00000F081821832934200F07D8218329342C8
:1028F00000F0798202F55672934200F07482183229
:10290000934200F070821832934200F06C821832C9
:10291000934200F068821832934200F064821832C9
:10292000934200F060821832934200F05C821832C9
:10293000934200F05882234A2348834218BF9342AF
:1029400000F114000CBF01220022834208BF42F0B4
:1029500001021430834208BF42F001021430834266
:1029600008BF42F001021430834208BF42F0010266
:102970001430834208BF42F0010212B9134A934255
:1029800016D1F06D04251A6800F01F0085400D4235
:1029900000F08382570740F180821004656040F1A7
:1029A000AF82D10300F1B282B36C002B40F0F4810E
:1029B00002B0BDE8F08100BF5000002428000240B2
:1029C00010000240085402581C54025894540258F3
:1029D000D6F85CE04FF0080C0EF01F020CFA02F182
:1029E0000F4200F0DE81D3F800C01CF0040F0AD0C3
:1029F000D3F800C02CF0040CC3F800C0A160716DC6
:102A000041F00101716527FA02F1C9075BD5002881
:102A10004FD1A249DFF898C2634518BF8B420CF131
:102A2000180C0CBF01210021634508BF41F00101D2
:102A30000CF1180C634508BF41F001010CF1180CB2
:102A4000634508BF41F001010CF1180C634508BF54
:102A500041F001010CF5567C634508BF41F00101CE
:102A60000CF1180C634508BF41F001010CF1180C82
:102A7000634508BF41F001010CF1180C634508BF24
:102A800041F001010CF1180C634508BF41F0010150
:102A90000CF1180C634508BF41F001010CF1180C52
:102AA000634508BF41F0010119B97D498B4240F0EF
:102AB000E3815969090606D501219140A160716D34
:102AC00041F0020171650421914039425FD0DFF885
:102AD000CCC1634551D000284FD10CF1300CDFF848
:102AE000D081434518BF634508F130080CBF4FF053
:102AF000010C4FF0000C434508BF4CF0010C08F1ED
:102B00001808434508BF4CF0010C08F1180843456C
:102B100008BF4CF0010C08F55678434508BF4CF04F
:102B2000010C08F11808434508BF4CF0010C08F1EE
:102B30001808434508BF4CF0010C08F1180843453C
:102B400008BF4CF0010C08F11808434508BF4CF0D1
:102B5000010C08F11808434508BF4CF0010C08F1BE
:102B60001808434508BF4CF0010CBCF1000F04D11C
:102B7000DFF82CC1634540F08581D3F800C01CF01C
:102B8000020F04D0A160716D41F004017165102144
:102B900001FA02F23A425BD040498B4242D000280F
:102BA00040D118313F48834218BF8B4200F11800D2
:102BB0000CBF01210021834208BF41F00101183000
:102BC000834208BF41F001011830834208BF41F041
:102BD000010100F55670834208BF41F00101183031
:102BE000834208BF41F001011830834208BF41F021
:102BF00001011830834208BF41F0010118308342BF
:102C000008BF41F001011830834208BF41F00101C3
:102C10001830834208BF41F0010119B920498B42A5
:102C200040F037811968C1F3C00189B1A2601A6808
:102C3000500300F1E7801A68D20503D41A6822F025
:102C400008021A60336C1BB130469847D6F85CE036
:102C50000EF01F0120208840384273D03268124B9A
:102C6000124FBA4218BF9A4207F118070CBF01234E
:102C70000023BA4208BF43F001031837BA4208BF25
:102C800043F001031837BA4208BF43F00103183775
:102C9000BA4208BF43F0010318370BE0400002407E
:102CA000B8040240700002401000024028000240B8
:102CB00058000240BA4208BF43F001031837BA4235
:102CC00008BF43F0010307F55677BA4208BF43F047
:102CD00001031837BA4208BF43F001031837BA425C
:102CE00008BF43F001031837BA4208BF43F001039D
:102CF0001837BA4208BF43F001031837BA4208BF79
:102D000043F001031837BA4208BF43F001031BB96F
:102D1000894B9A4240F0D1801368C3F300138BB102
:102D2000A06096F83530042B136874D013F4802F0C
:102D3000136800F08A801F0340F19580F36B0BB19C
:102D400030469847736D002B3FF432AE736DDC074D
:102D50001ED53268042186F8351078491368A1FB26
:102D6000055123F00103890A136002E01368D807B4
:102D700004D5019B01338B420193F7D91368DB071C
:102D80004CBF0323012386F83530002386F8343006
:102D9000F36C002B3FF40CAE304602B0BDE8F041BE
:102DA000184727FA02F1C9073FF583AE0421914085
:102DB0000F427FF4E2AE102101FA02F217427FF4D3
:102DC00031AF45E7D6F85CE04FF0080C0EF01F027B
:102DD0000CFA02F10F427FF406AE27FA02F1C9079E
:102DE0003FF567AE6FE6D6F85CE008210EF01F02F3
:102DF00091400F427FF4F7AD27FA02F1C9073FF582
:102E000058AE60E61B6819037FF51CAFB36C002B4E
:102E10007FF41AAF1CE723F016031360536923F005
:102E200080035361336C1BB3136823F008031360F2
:102E30003F23012000228B40A360336D86F83500CC
:102E400086F83420002BA7D1B2E513F480737FF409
:102E500075AF116821F010011160012286F834303D
:102E600086F835206AE7736C002B7FF469AF69E759
:102E7000B36C002BD8D1DBE71968042191403942AB
:102E80003FF485AE1968102101FA02F217423FF4AF
:102E9000DFAE1968C1F38001C7E6022585400D4207
:102EA0000FD097070DD51104656034D5D7033ED4F4
:102EB000736C002B7FF470AF7AE51368C3F34003A3
:102EC0002DE7082585400D423FF472AD15077FF5CB
:102ED0006FAD1A68002122F00E021A600123F26C15
:102EE00003FA00F06060736586F8341086F83530B8
:102EF000002A3FF45DAD304602B0BDE8F041104716
:102F0000920603D41A6822F004021A60336C002B74
:102F10007FF442AF4CE512F0200208D1196801207D
:102F200021F00A01196086F8350086F83420F36B29
:102F3000002B7FF431AF3BE5B8040240B5814E1B56
:102F4000406D7047334B30B4996A9C6ADD6A14F463
:102F50007C7F5A6BC4F3051036D0C2F3CC0205F067
:102F6000010501F0030107EE900A05FB02F20129B9
:102F7000B8EEE77A06EE902AFAEEE96A02D0022964
:102F800042D019B3DFED247A87EE876A1B6BC3F357
:102F9000080307EE903AF7EE005AF8EEE77A77EE7C
:102FA000A67A77EEA57A67EE867A1A4B1B6BC3F387
:102FB0004623013307EE103AF8EEC76A87EEA67A89
:102FC000FCEEC77A17EE900A30BC70471A6892067A
:102FD0001DD51968F7EE005A104A1B6BC1F3C101E9
:102FE000C3F30803CA4007EE903A06EE102AF8EE43
:102FF000E77AB8EEC66A77EEA66AC6EE077A36EECC
:10300000A57A67EE877AD0E7DFED057ABCE7DFEDDA
:10301000057AB9E7004402580024744A0090D003AE
:103020000024744B0024744C002800F0EF82F8B5A3
:1030300003680446D80730D598490A69896A02F0BE
:103040003802102A00F0F080182A00F0E880636847
:10305000B3F5803F00F01381002B00F06A81B3F5D7
:10306000A02F8E4B1A6800F0908222F480321A60F2
:103070001A6822F480221A6005F086F8874E41F221
:103080008837054605E005F07FF8401BB84200F29E
:103090004E8133689A03F6D523689D0770D4D9060C
:1030A00033D57E4A1369926A03F03803082B00F087
:1030B000CB80182B00F0C380E369784D002B00F023
:1030C00072812B6843F080032B6005F05DF80646A3
:1030D00005E005F059F8801B022800F228812B68D2
:1030E000DB05F6D505F068F841F20303984200F2DB
:1030F0006D82226A6B68202A23F0F8430CBF43F0EC
:10310000804343EA82636B6023681D0716D56369B9
:10311000624D002B00F025816B6F43F001036B675C
:1031200005F032F8064605E005F02EF8801B02286F
:1031300000F2FD806B6F9807F6D523689A0616D5C6
:10314000A369564D002B00F01D812B6843F480537A
:103150002B6005F019F8064605E005F015F8801B10
:10316000022800F2E4802B689F04F6D523685907F3
:1031700000F18B80636A002B40F0BF800020F8BD17
:10318000464A1369926A13F038032DD1434BE26823
:103190001B68590701D5002A4FD0404D2B6823F0FA
:1031A000190313432B6004F0EFFF064605E004F01B
:1031B000EBFF801B022800F2BA802B685B07F6D574
:1031C00004F0FAFF41F20303984200F213812269EE
:1031D0006B68402A23F47C330CBF43F4003343EA8A
:1031E00002336B6023685AE7182B00F0FF802B4DE9
:1031F000E2682B68002A00F0E88023F019031343EB
:103200002B6004F0C1FF064605E004F0BDFF801B03
:10321000022800F28C802B685F07F6D5D0E701F01A
:10322000030102297FF413AF1C4A126891037FF552
:1032300034AF6268002A7FF430AF0120F8BD02F09D
:103240000302012A7FF438AF144B1B68DA0502D55C
:10325000E369802BF1D104F0AFFF41F20303984200
:1032600000F2D180226A202A00F0BF810B494B680E
:1032700023F0F84343EA82634B60236845E7074A3B
:10328000136843F480331360F6E6054D2B6843F46E
:1032900080732B6004F078FF064608E00044025873
:1032A0000048025804F070FF801B64283FD82B6848
:1032B000DA05F7D5A368012B00F09181002B00F00F
:1032C0006C81052B874B1A6F00F0988122F0010268
:1032D0001A671A6F22F004021A6704F055FF814E34
:1032E00041F28837054604E004F04EFF401BB84227
:1032F0001DD8336F9B07F7D53CE77A4D2A6902F05A
:103300003802182A00F0F480022B2B6823F0807317
:103310002B6000F0828004F037FF04462B689B018D
:103320007FF52CAF04F030FF001B0228F6D90320F4
:10333000F8BD6C4D41F288372B6823F480332B6045
:103340002B6823F480232B6004F01EFF064604E064
:1033500004F01AFF801BB842E9D82B689B03F7D40E
:103360009AE66B6F23F001036B6704F00DFF0646CE
:1033700004E004F009FF801B0228D8D86B6F99077E
:10338000F7D4DAE62B6823F480532B6004F0FCFEBC
:10339000064604E004F0F8FE801B0228C7D82B681C
:1033A0009804F7D4E2E62B6823F080032B6004F046
:1033B000EBFE064604E004F0E7FE801B0228B6D8C8
:1033C0002B68DF05F7D423689FE623F001032B6009
:1033D00004F0DAFE064604E004F0D6FE801B022864
:1033E000A5D82B685807F7D4236858E690077FF4D0
:1033F000FEAECBE66B68226923F0FE4343EA02632C
:103400006B6023684BE6374A216AD36823F07C530C
:1034100043EA0163D360236877E604F0B5FE06460D
:1034200004E004F0B1FE801B022880D82B689901CB
:10343000F7D4A96A2C4BA26A0B402C49294E13439E
:10344000E26A43EA0213AB62D4E90D32013B013A6E
:103450005B0212049BB202F4FE021343226B013A98
:10346000C2F308021343E26B013A120602F0FE4275
:1034700013432B63EB6A23F00103EB626A6BA36CCB
:10348000114041EAC3016963EB6A226C23F00C032B
:103490001343EB62EB6A626C23F002031343EB62AB
:1034A000EB6A43F48033EB62EB6A43F40033EB6284
:1034B000EB6A43F48023EB62EB6A43F00103EB62B7
:1034C0002B6843F080732B6004F05EFE0446336883
:1034D0009A013FF553AE04F057FE001B0228F6D9BF
:1034E00025E700BF004402580CFCFFFF0700FFFF68
:1034F000012BAA6A286B3FF4A0AE02F00303A16A75
:103500008B427FF49AAEC2F30512E36A9A427FF4CB
:1035100094AE236BC0F30802013B9A427FF48DAE58
:10352000636BC0F34622013B9A427FF486AEA36BE5
:10353000C0F30642013B9A427FF47FAEE36BC0F3D7
:103540000660013B98427FF478AE6B6BA26CC3F3CC
:10355000CC039A423FF412AE2D4AD36A23F0010302
:10356000D36204F011FE054604F00EFEA842FBD023
:10357000274A284B506BA16C034043EAC1035363B5
:10358000D36A43F00103D362F8E542F480221A6063
:103590001A6842F480321A606EE51D4D41F2883798
:1035A0002B6F23F001032B672B6F23F004032B6792
:1035B00004F0EAFD064605E004F0E6FD801BB84293
:1035C0003FF6B5AE2B6F9807F6D4D3E5EB68226AC9
:1035D00023F07C5343EA0263EB60236895E50C4AD1
:1035E000136F43F00103136777E6094A536823F02A
:1035F000F84343F080435360236886E542F00402B9
:103600001A671A6F42F001021A6766E601207047D6
:10361000004402580700FFFF3F4A136903F03803D4
:10362000102B04D0182B0DD01BB13C4870473C48E0
:1036300070471368990648D513683A48C3F3C10325
:10364000D8407047916A30B4946AD56A14F47C7F8C
:10365000536BC4F3051036D0C3F3CC0305F001055A
:1036600001F0030107EE900A05FB03F30129F8EED0
:10367000E77A06EE903AFAEEE96A02D0022926D0FD
:1036800041B39FED297A87EE276A136BC3F30803D2
:1036900007EE103AF7EE005AB8EEC77A37EE267A00
:1036A00037EE257A27EE067A1B4B1B6BC3F34623B6
:1036B000013307EE903AF8EEE76AC7EE267AFCEEA1
:1036C000E77A17EE900A30BC7047164870479FEDB6
:1036D000177AD8E713689B061AD51068F7EE005AD8
:1036E000136B1049C0F3C102C3F30803D14007EEC6
:1036F000103A06EE101AB8EEC77AB8EEC66A77EE40
:10370000266A86EE277A76EEA57A27EE277ACBE729
:103710009FED077AB7E700BF0044025800093D005B
:103720000024F4000090D0030024744A0024744B59
:103730000024744C002800F00E818D4A136803F0B9
:103740000F038B422DE9F04104460D460CD213685D
:1037500023F00F030B431360136803F00F038B4236
:1037600002D00120BDE8F081236858070BD58149BC
:1037700020698A6902F07002904204D98A6922F0B5
:10378000700202438A6119070BD57A496069CA69D8
:1037900002F07002904204D9CA6922F0700202431A
:1037A000CA61DA060BD57349A069CA6902F4E062FE
:1037B000904204D9CA6922F4E0620243CA619F06BA
:1037C0000BD56C49E0690A6A02F07002904204D994
:1037D0000A6A22F0700202430A629E0703F00102A5
:1037E00040F1AB80634EE068B16901F00F0188429F
:1037F00004D9B16921F00F010143B161002A30D031
:103800005C4AA168936923F470630B439361616818
:103810001368022900F0A180032900F09880012993
:1038200000F0A1805F079CD5524E41F28838336981
:1038300023F007030B43336104F0A6FC074605E0C1
:1038400004F0A2FCC01B404500F28B803369626823
:1038500003F03803B3EBC20FF2D123689E0706D5FD
:10386000E06844498A6902F00F02824269D84049FF
:103870000A6802F00F02AA420AD90A6822F00F026F
:103880002A430A600A6802F00F02AA427FF469AF75
:1038900058070BD5374920698A6902F070029042B7
:1038A00004D28A6922F0700202438A6119070BD59B
:1038B00030496069CA6902F07002904204D2CA6954
:1038C00022F070020243CA61DA060BD52949A069C9
:1038D000CA6902F4E062904204D2CA6922F4E0624A
:1038E0000243CA619B060BD5224AE169136A03F0C1
:1038F0007003994204D2136A23F070030B431362DE
:10390000FFF78AFE1B4A03461B4891699269C1F37F
:1039100003211A4D02F00F02194C415C825C01F048
:103920001F01184802F01F02CB4000682B60D340F3
:103930002360BDE8F04104F0C5BB002A7FF460AF0E
:1039400095E78A6922F00F0202438A618FE79A01A4
:103950003FF56AAF05E70120704798033FF564AF74
:10396000FFE60320FEE6DB053FF55EAFF9E600BFAC
:103970000020005200440258344D01085000002439
:103980004C00002410010024184A38B5136903F0D4
:103990003803102B19D0182B22D0C3B1144B134964
:1039A00014488A698969C2F30322134C01F00F019C
:1039B000124D825C405C02F01F0200F01F00D340F9
:1039C00023FA00F02B60206038BD0D4BE7E7136849
:1039D0009B0609D512680B4BC2F3C102D340DEE748
:1039E000FFF7B0FA0346DAE7064BD8E7004402587F
:1039F00000093D00344D01084C0000245000002413
:103A00000024F4000090D0031C4A38B5136903F079
:103A10003803102B20D0182B29D0FBB1184B174A94
:103A200018499069184DC0F30320184C085C00F049
:103A30001F00C340906900F00F002B60085C00F08D
:103A40001F00C3402360D269C2F30212885C00F0F9
:103A50001F0023FA00F038BD0D4BE0E713689B060A
:103A600009D512680B4BC2F3C102D340D7E7FFF769
:103A700069FA0346D3E7074BD1E700BF0044025879
:103A800000093D00344D0108500000244C00002482
:103A90000024F4000090D0031C4A38B5136903F0E9
:103AA0003803102B20D0182B29D0FBB1184B174A04
:103AB00018499069184DC0F30320184C085C00F0B9
:103AC0001F00C340906900F00F002B60085C00F0FD
:103AD0001F00C3402360D269C2F30222885C00F059
:103AE0001F0023FA00F038BD0D4BE0E713689B067A
:103AF00009D512680B4BC2F3C102D340D7E7FFF7D9
:103B000021FA0346D3E7074BD1E700BF0044025830
:103B100000093D00344D0108500000244C000024F1
:103B20000024F4000090D003F8B5364C06460F464A
:103B3000236823F08063236004F026FB054604E03D
:103B400004F022FB401B022856D823681A01F7D440
:103B5000A36A326823F47C3343EA0233A362D6E9D2
:103B60000232013B013A5B0212049BB202F4FE02F4
:103B700013437268013AC2F3080213433269013AEF
:103B8000120602F0FE421343A363E36A726923F054
:103B9000C0031343E362E26AB36922F020021A43CE
:103BA000194BE262E26A22F01002E262E16BF26912
:103BB0000B4043EAC203E363E36A43F01003E362AA
:103BC000E36ADFB1012F0CBF43F4801343F4001309
:103BD000E3620C4C236843F08063236004F0D4FA62
:103BE000054604E004F0D0FA401B022804D82368FC
:103BF0001B01F7D50020F8BD0320F8BD43F40023D6
:103C0000E362E6E7004402580700FFFFF8B5364CD0
:103C100006460F46236823F08053236004F0B4FA6D
:103C2000054604E004F0B0FA401B022856D8236889
:103C30009A00F7D4A36A326823F07C7343EA0253F4
:103C4000A362D6E90232013B013A5B0212049BB245
:103C500002F4FE0213437268013AC2F308021343EE
:103C60003269013A120602F0FE4213432364E36A0A
:103C7000726923F440631343E362E26AB36922F496
:103C800000721A43194BE262E26A22F48072E26225
:103C9000616CF2690B4043EAC2036364E36A43F474
:103CA0008073E362E36ADFB1012F0CBF43F40003CA
:103CB00043F08073E3620C4C236843F0805323602D
:103CC00004F062FA054604E004F05EFA401B0228A4
:103CD00004D823689B00F7D50020F8BD0320F8BD69
:103CE00043F48003E362E6E7004402580700FFFF65
:103CF0002DE9F843D0E9003204461D0103F00066C7
:103D000025D5816EB1F5001F00F0608614D800291A
:103D100000F0FA86B1F5801F40F06684AD49896AEB
:103D200001F00301032900F05F8402210830FFF74E
:103D3000FBFE064600F056BEB1F5401F40F054842D
:103D4000A44D0026286D20F4401001432965D805B4
:103D50000AD5A16D042906D8DFE811F0A8044C06A5
:103D60006106AD04AD0401263546990524D5E16D03
:103D7000802900F0648600F22281002900F0AC84E2
:103D8000402940F023819349896A01F00301032906
:103D900000F01C81002104F10800FFF7C5FE054674
:103DA000D4E90032002D40F01B858A4FE06D396D5B
:103DB00021F4E071014339655F0528D5D4F8A810D6
:103DC000B1F5800F00F04F8600F20681002900F067
:103DD0006384B1F5001F40F007817E49896A01F0D4
:103DE0000301032900F00081002104F10800FFF71E
:103DF0009BFE0546D4E90032002D40F0F484754F57
:103E0000D4F8A800B96D21F460010143B965180523
:103E100028D5D4F8AC10B1F1007F00F0AC8500F2E9
:103E2000E680002900F02584B1F1807F40F0E78032
:103E30006849896A01F00301032900F0E08000214C
:103E400004F10800FFF770FE0546D4E90032002DAA
:103E500040F0CC845F4FD4F8AC00B96D21F0E06144
:103E60000143B965990118D5E16C202900F0FF8460
:103E700000F2C88039B1102940F0C7805548C16AA6
:103E800041F40031C162002D40F09F84514FE06C3D
:103E9000F96C21F030010143F964DF0426D5216E6D
:103EA000B1F5005F00F07B8500F2B280002900F0E0
:103EB000EA83B1F5805F40F0B3804649896A01F03A
:103EC0000301032900F0AC80002104F10800FFF792
:103ED0002BFE0546D4E90032002D40F08A843D4F88
:103EE000206E396D21F4E04101433965980424D5F1
:103EF000616EB1F5003F00F0168500F2948091B13B
:103F0000B1F5803F40F099803249896A01F00301A0
:103F1000032900F09280012104F10800FFF704FE5C
:103F20000546D4E90032002D40F07684294F606EBA
:103F3000396D21F4E02101433965590423D5D4F8C2
:103F4000B010B1F1005F00F0028579D881B1B1F114
:103F5000805F7DD11F49896A01F00301032977D071
:103F6000012104F10800FFF7DFFD0546D4E9003226
:103F7000002D40F05484174FD4F8B000B96D21F0F3
:103F8000E0410143B9651F040DD5216FB1F1805F98
:103F900000F0E282B1F1005F00F0F083002900F050
:103FA000E08201263546D8015ED5A16C032900F2D6
:103FB000CD85DFE811F05500500093045500C0296D
:103FC0003FF4F0AEB1F5807F3FF4ECAE012635460C
:103FD000F2E600BF00440258B1F5C00F3FF40CAF49
:103FE000B1F5000F3FF408AF012635460FE7B1F1F8
:103FF000407F3FF42CAFB1F1806F3FF428AF012632
:1040000035462FE730293FF43EAF0126354644E7D9
:10401000B1F5405F3FF460AFB1F5804F3FF45CAF66
:104020000126354662E721F48030B0F5802F3FF459
:104030007AAFB1F5403F3FF476AF012635467CE7D5
:1040400021F08050B0F1804F92D0B1F1405F8FD01D
:104050000126354697E73748C16A41F40031C1620D
:10406000002D00F0B5832E46590200F1C082DF0713
:104070002FD5E16F28292AD8DFE811F0AB022900FB
:104080002900290029002900290029009C02290073
:104090002900290029002900290029002D052900CF
:1040A000290029002900290029002900AB02290044
:1040B000290029002900290029002900AB02290034
:1040C000290029002900290029002900AB02012626
:1040D000354698071ED5A16F052900F21C85DFE83B
:1040E00011F015000600E80415001500150011492F
:1040F000896A01F00301032900F00D85012104F113
:104100000800FFF711FD0546D4E90032002D00F04C
:104110007B832E46590722D5D4F89410052900F246
:10412000FE84DFE811F018000900B404180018003C
:10413000180000BF00440258B049896A01F0030129
:10414000032900F0EC84012104F10800FFF7ECFCE6
:104150000546D4E90032002D00F064832E469F0608
:1041600026D5D4F89010B1F1005F00F06E8300F214
:10417000948191B1B1F1805F40F099819F49896A42
:1041800001F00301032900F09281002104F10800ED
:10419000FFF7CAFC0546D4E90032002D40F04B83FE
:1041A000964FD4F89000796D21F0E0410143796594
:1041B000580626D5D4F89C10B1F5006F00F0A18305
:1041C00000F2788191B1B1F5806F40F07D818B492B
:1041D000896A01F00301032900F07681002104F1CE
:1041E0000800FFF7A1FC0546D4E90032002D40F09D
:1041F0002883824FD4F89C00B96D21F4E05101432B
:10420000B965190626D5D4F8A010B1F5804F00F095
:10421000538300F25C8191B1B1F5005F40F06181A0
:104220007649896A01F00301032900F05A810021CF
:1042300004F10800FFF778FC0546D4E90032002DB0
:1042400040F0FB826D4FD4F8A000B96D21F46041BD
:104250000143B9651F070BD5D4F88400B0F5805F22
:1042600000F05082654F796D21F44051014379652A
:10427000D8060BD5D4F89800B0F5807F00F05782AF
:104280005E4FB96D21F440710143B96519030ED534
:10429000D4F8A410B1F5803F00F06E81B1F5003F75
:1042A00000F07981002900F07A82012635465F030B
:1042B0000FD5D4F88810B1F5001F00F0EB82B1F5EE
:1042C000401F00F03D81B1F5801F00F034810126D0
:1042D0003546D80320D5216D002900F04582B1F57F
:1042E000803F40F025814549896A01F00301032997
:1042F00000F01E81022104F10800FFF715FC0546BD
:10430000D4E90032002D40F037823C4F206DF96C2B
:1043100021F480310143F96499000ED53749896A47
:1043200001F00301032907D0022104F12800FFF75F
:104330006DFCD4E9003200B101269F0340F1E0801A
:10434000D4F88010B1F5807F00F0058240F2CC8077
:1043500021F48070B0F5007F00F0C9800125D802FB
:1043600006D52648666F016D21F000413143016595
:10437000D90007D52148D4F8B860016921F48041FB
:10438000314301619F0206D51C48E66E016D21F0A4
:104390008071314301655E0009D51849086920F430
:1043A000004008610869D4F8BC6030430861002B04
:1043B00006DA1248666DC16C21F040513143C16488
:1043C000180207D50D49D4F88C004B6D23F4400337
:1043D00003434B65D10713D5084B9B6A03F00303D6
:1043E000032B00F08D81002104F10800FFF79CFBF6
:1043F0006268002840F0048202E000BF00440258D6
:1044000093070FD5B24B9B6A03F00303032B00F015
:104410006C81012104F10800FFF786FB6268002827
:1044200040F0F08157070FD5A94B9B6A03F00303B7
:10443000032B00F05C81022104F10800FFF774FBFC
:104440006268002840F0D88116070FD5A04B9B6A00
:1044500003F00303032B00F04C81002104F128003A
:10446000FFF7D4FB6268002840F0C881D0064AD527
:10447000974B04F128069B6A03F00303032B00F01B
:104480003A8101213046FFF7C1FB00283AD063682A
:104490009A0640F18C80054639E021F08050B0F159
:1044A000804F3FF47AAEB1F1405F3FF476AE012623
:1044B00035467DE621F48060B0F5805F3FF496AE2E
:1044C000B1F5406F3FF492AE0126354699E621F4EE
:1044D0000050B0F5004F3FF4B2AEB1F5C04F3FF41D
:1044E000AEAE01263546B5E600297FF437AF002D84
:1044F0007FF435AF764D686D20F4407001436965F7
:1045000035462CE7626893060DD504F12806704BFA
:104510009B6A03F00303032B49D002213046FFF7C7
:1045200075FB002843D1281E18BF0120BDE8F88381
:1045300001263546F0E66648C16A41F40031C162A1
:10454000002D40F04081624FD4F88800796D21F44D
:10455000401101437965BCE65D48C16A41F4003110
:10456000C162002D40F02C81594F206F396D21F030
:1045700040510143396516E55549896A01F0030147
:1045800003293FF492AE022104F12800FFF73EFB1D
:104590000546D4E90032002D40F051814C4FD4F84B
:1045A000A400B96D21F440310143B9657FE60120D3
:1045B000BDE8F8834649896A01F0030103293FF405
:1045C00086AD012104F10800FFF7AEFA0546D4E9F3
:1045D0000032002D40F037813D4FE06F796D21F0C2
:1045E00038010143796574E50126FFF7B0BB394F07
:1045F0003B6843F480733B6003F0C6FD804606E0F1
:1046000003F0C2FDA0EB0800642800F277823B684B
:10461000DA05F5D5002D40F072822D4AD4F8B43079
:10462000116F594011F4407F0BD0116F106F21F4BE
:10463000407140F480301067106F20F480301067B4
:104640001167B3F5807F00F0858203F44072B2F504
:10465000407F00F093821E490A6922F47C520A616D
:104660001B48C3F30B01076F3943D4E900320167DC
:10467000FDE41748C16A41F40031C162002D40F0E9
:10468000B580FFF7E7BB1248C16A41F40031C1624F
:10469000002D40F0AE8022E40D48C16A41F40031A3
:1046A000C162002D40F09F80FFF7A9BB0848C16A96
:1046B00041F40031C1623546002D40F0AD81044F18
:1046C000A06D396D21F0070101433965FFF74DBB3E
:1046D0000044025800480258BB48C16A41F4003106
:1046E000C162002D7CD1FFF760BB01259AE6012550
:1046F000AAE60125BAE691067FF559AF012506E73E
:1047000001257DE6B049896A01F00301032900F023
:104710000A82022104F12800FFF778FA002800F04D
:104720000F82D4F884000126D4E900329AE5A64924
:10473000896A01F00301032900F0F881022104F1E4
:104740002800FFF763FA002840F0F381D4F89800BE
:10475000D4E9003294E59C4FF86A40F40030F862E6
:10476000002D7FF4FCADC5E69748C16A41F40031E5
:10477000C162002D3FF4C9AD2E46CDE59249896A4C
:1047800001F0030103293FF40CAC012104F10800FE
:10479000FFF7CAF90546D4E900328DB9E4E68A4844
:1047A000806A00F0030003283FF47FAD04F10800A5
:1047B000FFF7BAF90546D4E90032002D3FD1EDE606
:1047C0002E46FFF7F0BB2E4683E52E46FFF765BB6E
:1047D0007D4FA06CF96C21F003010143F96443E4BF
:1047E0002E46FFF7E9BA2E46FFF711BB2E46FFF71C
:1047F00039BB2E46FFF77ABB054625E6054635E66A
:104800000546FDE505460DE66F4FA06F796D21F079
:104810000701014379657DE42E46FFF78EBB2E46E6
:10482000FFF7B1BB684FD4F89400B96D21F00701D0
:104830000143B96593E42E46BAE42E460AE52E46B6
:1048400035E52E46DDE42E4643E45F49896A01F0F2
:10485000030103293FF42BAE022104F12800FFF7E6
:10486000D5F90546D4E90032002DE4D198E4564943
:10487000896A01F0030103293FF4C7AB022104F167
:104880000800FFF751F90546D4E90032002D9CD10C
:10489000FFF7FCBA4C49896A01F0030103293FF490
:1048A00016AD012104F12800FFF7B0F90546D4E95F
:1048B0000032002D87D146E64349896A01F00301A1
:1048C00003293FF40EAE022104F12800FFF79EF900
:1048D0000546D4E90032002DAFD1B3E43A49896AE4
:1048E00001F00301032900F03181022104F10800E5
:1048F000FFF71AF90546D4E90032002D7FF4B3AB77
:1049000066E73149896A01F0030103293FF4DCAD10
:10491000022104F12800FFF779F90546D4E90032B5
:10492000002D8ED165E42849896A01F0030103292D
:104930003FF483AB012104F12800FFF767F9054636
:10494000D4E90032002D7FF467AFFFF7EFBA1E49BC
:10495000896A01F0030103293FF47AAB012104F1D4
:104960002800FFF753F90546D4E90032002D7FF403
:1049700056AFFFF700BB1449896A01F00301032910
:104980003FF43DAB002104F12800FFF73FF9054655
:10499000D4E90032002D7FF429AFFFF75BBA0A4952
:1049A000896A01F0030103293FF43AAB002104F1C5
:1049B0002800FFF72BF90546D4E90032002D7FF4DB
:1049C00018AFFFF78CBA00BF004402587349896AD8
:1049D00001F0030103293FF407AE02212830FFF75D
:1049E00015F90646D4E90032002E7FF4B0A9A16E75
:1049F000FFF7A6B96949896A01F0030103293FF469
:104A0000B2A9002104F10800FFF78EF80546D4E9A9
:104A10000032002D3FF453AE2E46FFF7A6B95F4992
:104A2000896A01F0030103293FF49DA9002104F1E3
:104A30002800FFF7EBF80546D4E900323CE6574979
:104A4000896A01F0030103293FF4C0AA002104F19F
:104A50002800FFF7DBF80546D4E90032002D7FF48B
:104A6000BFAEFFF7A2B94D49896A01F003010329DE
:104A70003FF4BAAA002104F12800FFF7C7F8054661
:104A8000D4E90032002D7FF4AEAEFFF7B8B9434948
:104A9000896A01F00301032941D0012104F12800B2
:104AA000FFF7B4F80546D4E90032002D7FF456AB89
:104AB000B8E63A49896A01F0030103292BD00121A4
:104AC00004F12800FFF7A2F80546D4E90032002DD2
:104AD0007FF41FAB98E63149896A01F0030103298D
:104AE0003FF4F5AA012104F12800FFF78FF80546ED
:104AF000D4E90032002D7FF4A6AE6DE503252E46E5
:104B0000D4E90032FFF7B3BA244DE86A40F400302C
:104B1000E862FFF715B901263546FFF7FBBA012613
:104B20003546FFF71CBB0126FFF79CBB0126FFF7AC
:104B3000A7BBD4F898000126D4E90032FFF7A0BB48
:104B4000D4F88400D4E90032FFF78CBB0126354647
:104B5000FFF78ABA03F018FBDFF84080074641F2FE
:104B6000883904E003F010FBC01B484510D8D8F882
:104B700070309B07F6D5D4F8B43066E50748084A8C
:104B8000016902EA131221F47C510A43026167E5CC
:104B90000326D4E900323546FFF769BA00440258CB
:104BA000CFFFFF0008B5FEF7EFFE054B054A1B6A75
:104BB000C3F30213D35C03F01F03D84008BD00BF4A
:104BC00000440258344D0108474A70B4946A956A0B
:104BD000D66A15F47C3FC5F30533D16B5BD0C1F3C6
:104BE000CC01C6F3001604F0030407EE903A06FB6E
:104BF00001F1012CB8EEE77A06EE901AFAEEE96AB6
:104C000003D0022C6AD0002C4AD0DFED387A87EE30
:104C1000876A936BC3F3080307EE903AF7EE005AE6
:104C2000F8EEE77A77EEA67A77EEA57A67EE867ADF
:104C30002D4AB7EE006A936BC3F3462307EE103A92
:104C4000B8EEC77A70BC37EE067AC7EE876AFCEE1C
:104C5000E66AC0ED006A936BC3F3064307EE103AB1
:104C6000B8EEC77A37EE067AC7EE876AFCEEE66AD8
:104C7000C0ED016A936BC3F3066306EE903AF8EE5B
:104C8000E66A76EE866A87EEA67AFCEEC77A17EEBB
:104C9000903A8360704770BCC0E90033836070470E
:104CA00013689B061DD51468F7EE005A936B1049E4
:104CB000C4F3C102C3F30803D14007EE903A06EEF5
:104CC000101AF8EEE77AB8EEC66A77EEA66AC6EE74
:104CD000077A36EEA57A67EE877AA9E7DFED057ADF
:104CE00095E7DFED057A92E7004402580024744A04
:104CF0000090D0030024744B0024744C474A70B4D5
:104D0000946A956AD66A15F07C7FC5F30553516C99
:104D10005BD0C1F3CC01C6F3002604F0030407EE18
:104D2000903A06FB01F1012CB8EEE77A06EE901AF4
:104D3000FAEEE96A03D0022C6AD0002C4AD0DFEDEB
:104D4000387A87EE876A136CC3F3080307EE903A4C
:104D5000F7EE005AF8EEE77A77EEA67A77EEA57AC4
:104D600067EE867A2D4AB7EE006A136CC3F34623CA
:104D700007EE103AB8EEC77A70BC37EE067AC7EE87
:104D8000876AFCEEE66AC0ED006A136CC3F3064363
:104D900007EE103AB8EEC77A37EE067AC7EE876AA2
:104DA000FCEEE66AC0ED016A136CC3F3066306EE1F
:104DB000903AF8EEE66A76EE866A87EEA67AFCEE20
:104DC000C77A17EE903A8360704770BCC0E9003331
:104DD0008360704713689B061DD51468F7EE005A70
:104DE000136C1049C4F3C102C3F30803D14007EEAA
:104DF000903A06EE101AF8EEE77AB8EEC66A77EE49
:104E0000A66AC6EE077A36EEA57A67EE877AA9E734
:104E1000DFED057A95E7DFED057A92E70044025869
:104E20000024744A0090D0030024744B0024744C76
:104E3000474A70B4946A956AD66A15F47C7FC5F3C4
:104E40000513516B5BD0C1F3CC0106F0010604F0F1
:104E5000030407EE903A06FB01F1012CB8EEE77A65
:104E600006EE901AFAEEE96A6FD0022C6AD0002C96
:104E70004AD0DFED387A87EE876A136BC3F30803F5
:104E800007EE903AF7EE005AF8EEE77A77EEA67A58
:104E900077EEA57A67EE867A2D4AB7EE006A136B35
:104EA000C3F3462307EE103AB8EEC77A70BC37EE6C
:104EB000067AC7EE876AFCEEE66AC0ED006A136BFD
:104EC000C3F3064307EE103AB8EEC77A37EE067A18
:104ED000C7EE876AFCEEE66AC0ED016A136BC3F3A6
:104EE000066306EE903AF8EEE66A76EE866A87EE9C
:104EF000A67AFCEEC77A17EE903A8360704770BCD2
:104F0000C0E900338360704713689B06B1D514680D
:104F1000F7EE005A136B1049C4F3C102C3F3080340
:104F2000D14007EE903A06EE101AF8EEE77AB8EEA6
:104F3000C66A77EEA66AC6EE077A36EEA57A67EEFF
:104F4000877AA9E7DFED057A95E7DFED057A92E745
:104F5000004402580024744C0090D0030024744B89
:104F60000024744AA0F580730B4300B585B000F0AF
:104F70008380A0F500730B4338D0A0F580630B430A
:104F800000F0E680A0F500630B4300F08980A0F5F7
:104F900080530B4360D0A0F500530B4300F0128107
:104FA000A0F500230B4300F0A380A0F580330B4352
:104FB00000F0FA80A0F580430B4300F04381A0F598
:104FC0000040084337D19A4A136D03F04053B3F1C0
:104FD000805F00F08480B3F1005F00F0578153BB25
:104FE000106810F4003044D0924842E0904A136DAB
:104FF00003F4E073802B00F0A68020D9C02B37D0BB
:10500000B3F5807F17D1D36C116803F04053490783
:1050100002D5002B00F0C280854A1268D00503D566
:10502000B3F1805F00F00281814A1268910302D5DA
:10503000B3F1005FD8D0002005B05DF804FB002B71
:105040004DD0402BF7D1106810F0006011D001A8AE
:10505000FFF7BAFD01980CE0754A136D03F4E043C5
:10506000B3F5005F6FD038D9B3F5405F40F088806A
:10507000714805B05DF804FB6D4B1B6D03F0070331
:10508000042BD8D801A252F823F000BF2F510008FA
:105090000B5100081B5100087150000817510008FF
:1050A000634A936D03F0E063B3F1007F4BD044D9C2
:1050B000B3F1407FDCD0B3F1806FBCD1D36C126808
:1050C00003F040535207A7D5002BA5D1584B5B489E
:1050D0001B68C3F3C103D840CBE7002B54D1106841
:1050E00010F00070C5D001A8FFF7A2FE0298C0E73B
:1050F0004F4A936D03F44033B3F5803F00F0D08006
:10510000B3F5003FDAD0002B95D1494B186810F069
:105110000060AED09BE7464A75E7454B186810F033
:105120000050A6D001A8FFF7E9FD0198A1E7404B88
:10513000186810F000709CD0D5E7002BCFD0B3F1E9
:10514000807F80D077E7106810F0005091D0E9E7B9
:10515000374A936D03F46003B3F5800FF3D006D89C
:10516000002BBCD0B3F5001F3FF46DAF63E7B3F580
:10517000C00F3FF47DAFB3F5000F3FF444AF5AE7E3
:10518000B3F5804F9AD056E7B3F5805F3FF45BAF3D
:1051900051E7106810F004003FF46BAF1368274824
:1051A000C3F3C103D84064E7214BDA6CD203BFD507
:1051B000186810F000603FF45CAF01A8FFF704FD31
:1051C000039856E71A4A136D03F4E023B3F5403F02
:1051D000DFD010D8B3F5803F58D0B3F5003F18D1D9
:1051E000134B186810F000503FF443AF01A8FFF7CD
:1051F00085FD02983DE7B3F5802F12D0B3F5A02FBF
:105200007FF419AF0A4B186810F400303FF431AF47
:10521000EAE6002B7FF40FAF05B05DF804EBFEF774
:10522000F3BB106810F480703FF423AF044820E70C
:10523000004402580024F4000080BB000090D0031A
:1052400000093D00284B9B6D03F0E043B3F1405F44
:1052500037D014D8B3F1805F3FD0B3F1005FBFD037
:10526000002B7FF4E8AEFEF78FFB1F4B1F4A1B6A33
:10527000C3F30213D35C03F01F03D840F9E6B3F184
:10528000804F17D0B3F1A04FBCD0D4E6106810F017
:1052900000603FF4EEAE01A8FFF796FC0298E8E646
:1052A000106810F000503FF4E4AE01A8FFF726FDAF
:1052B0000398DEE60C4B186810F480703FF4D9AE0A
:1052C000B4E7094B186810F004003FF4D2AE1B6835
:1052D0000748C3F3C103D840CBE6034B186810F06E
:1052E00000603FF4C6AED6E700440258344D0108D2
:1052F0000090D003084602F00DB800BF283000F03F
:105300001FBF00BF10B540F203338EB000244FF62C
:105310000B7240F20341ADF8083009A80123ADF843
:105320001020ADF824202246ADF80C10009402990C
:1053300007940C94CDE90544CDE90A4400F006FE3B
:1053400004A8012322460399009400F0FFFD09A858
:1053500000F0EAFE10B901200EB010BD04A800F064
:10536000E3FE80F00100C0B240000EB010BD00BFEF
:105370002DE9F04103239AB04FF001080024149363
:105380004FF60B75394B074610941193A3F19F63A9
:10539000ADF84C50A3F57D43CDF85C80CDE9158484
:1053A0001293FFF7AFFF4045064623D0022842D0B4
:1053B00040F601322E4B07F158000BADADF82C2012
:1053C0000B991894CDF86480CDF84A3000F0C8F8F5
:1053D00010A907F1700001F0C7FD264B0FCB85E83F
:1053E0000F003A6F294607F1140000F02FFB1AB0A6
:1053F000BDE8F08110231E4A06A906908DF82830DA
:105400000BAD1D4BCDF84A2009940294CDE907302D
:10541000CDE9180402A801F013F80823029A03A9A1
:105420002846ADF80C608DF80E40049605930B9459
:1054300000F0D6F8CCE70E4B4246ADF82C500BAD41
:10544000CDF84A3040F6013328460094ADF81830C4
:10545000234606990E94CDE91848CDE90C4400F096
:1054600075FD2146284600F06BFEB1E704020404F6
:10547000040604038C4C01080704010BF0B5364BFD
:105480000446364D40F2011201272DED028B456096
:1054900083B0A36003F58133ADF8042040F20272BB
:1054A00003F5807300202285E36040F606632782BF
:1054B000A387E762276400918DF8060002F0D2F816
:1054C000054601F029FF0646694604F15000FEB981
:1054D000F5B18DF8067002F047F8072D2DD104F1D3
:1054E00014052046FFF744FF284600F0EBFA284653
:1054F000B0EE408A00F0E2FAD0ED007AF8EE677A7A
:1055000088EE277A84ED1B7A03B0BDEC028BF0BDE8
:1055100002F02AF8072D15D1002EE0D004F1280161
:10552000084600F021FC04F13C01084600F01CFC98
:1055300004F1120000F078F9D1E7211D204601F0B6
:10554000AFF9CCE7211D204601F0AAF9002EE5D1E4
:10555000002DE3D0C3E700BF0507050605080509D0
:1055600030B585B0002504460122ADF80C102B465D
:105570000399009500F0EAFC0121204600F0E0FDCF
:10558000012001F0C7FE2946204600F0D9FD012088
:1055900001F0C0FE0121204605B0BDE8304000F01A
:1055A000CFBD00BF10B5C2F3002384B00C46017C10
:1055B0008DF80D2043EA4402FA2402238DF80C20D2
:1055C00003AA009400F0D4FF18B10124204604B0CF
:1055D00010BD04460A2001F09DFE204604B010BD17
:1055E000034670B543F8042B044684B0FA2507C976
:1055F00083E80700A1791E23009503AA1A31ADF8AC
:105600000C3020460223C9B2217400F0B1FF10B162
:10561000012004B070BD0A2001F07CFE4FF4B852A6
:1056200000950223ADF80C20204603AA217C00F04F
:105630009FFF0028ECD10A2001F06CFE41F20272BB
:1056400000950223ADF80C20204603AA217C00F02F
:105650008FFF0028DCD10A2001F05CFE04220095B7
:105660000223ADF80C20204603AA217C00F080FF25
:105670000028CDD10A2001F04DFE0622009502231C
:10568000ADF80C20204603AA217C00F071FF002811
:10569000BED10A2001F03EFE41F20822009502230D
:1056A000ADF80C20204603AA217C00F061FF002801
:1056B000AED10A20064601F02DFE0095022303AA72
:1056C000217C2046ADF80C6000F052FF00289FD1ED
:1056D000304601F01FFE009522790C232046002A57
:1056E0008DF80C3003AA4FF0020314BF622142214F
:1056F0008DF80D10217C00F03BFF002888D130464A
:1057000001F008FE2279D4E9023182F001020B4354
:1057100043EA82136279DBB20AB143F020030E221E
:10572000FA258DF80D302046009502238DF80C20C7
:1057300003AA217C00F01CFF00287FF469AF0A2037
:1057400001F0E8FD102200950223ADF80C20204660
:1057500003AA217C00F00CFF00287FF459AF0A2037
:1057600001F0D8FD122100950223ADF80C1003AA18
:10577000217C204600F0FCFE00287FF449AF0A207F
:1057800001F0C8FD012209212046FFF70BFF003878
:1057900018BF01203DE700BFF0B5214D87B00024C0
:1057A0000126102702A94FF4805228460194CDE922
:1057B0000267CDE9046406F0AFF8642002F0EAFC69
:1057C000022302A94FF48052284602930594CDE9A2
:1057D000037606F0A1F8042302A94FF4805228466C
:1057E0000397CDE904340323029306F095F840F2C1
:1057F0003223042202A92846019310230496CDE9FE
:105800000223019B4FF48052059306F085F840F681
:105810000601284606F0A0F8204607B0F0BD00BFFC
:10582000040900240000000070B51F4B88B0082256
:105830001E4E00214FF400641A614FF0020C0392D7
:105840000A225E60202606924022054699600320C7
:10585000196210215C620124C3E905624FF4C07231
:10586000DC60DA6107229FED0E7BCDE900C20422E5
:10587000CDE904016946181D029283ED0A7B06F00A
:1058800021F838B92846FFF787FF003818BF0120F4
:1058900008B070BD204608B070BD00BFAFF30080F7
:1058A00000100000000000000009002440410052E8
:1058B0005E4A0023F0B514688FB00A93002C40F0C4
:1058C000B2805B4B012103260C2511600227D3F81F
:1058D000D420584842F48052C3F8D420D3F8D420BE
:1058E00002F480520092009AD3F8E02042F01002B5
:1058F000C3F8E020D3F8E02002F010020192019AF0
:10590000D3F8E02042F04002C3F8E020D3F8E020D2
:1059100002F040020292029AD3F8E02042F008021C
:10592000C3F8E020D3F8E02002F008020392039AC3
:10593000D3F8E02042F48072C3F8E020D3F8E020EE
:1059400002F480720492049AD3F8E02042F08002BC
:10595000C3F8E020D3F8E02002F080020592059A17
:10596000D3F8E02042F02002C3F8E020D3F8E02092
:1059700002F020020692069AD3F8E02042F00402D8
:10598000C3F8E0204FF68372D3F8E0300B9603F0B3
:1059900004030C9507930223079908A9CDE908236E
:1059A00002F010FC48F2371308A9234808930C951D
:1059B0000997CDE90A4602F005FC4CF2037308A9E9
:1059C0001E480893CDE90974CDE90B6502F0FAFB96
:1059D00040F2FF6308A91A480893CDE90974CDE99C
:1059E0000B6502F0EFFB4FF60C7308A915480893FE
:1059F000CDE90974CDE90B6502F0E4FB4FF63F03F6
:105A000008A911480893CDE90974CDE90B6502F0A6
:105A1000D9FB202308A90B4809970C950893CDE9D9
:105A20000A4602F0CFFB0FB0F0BD00BFF80800241B
:105A3000004402580010025800180258000C025886
:105A400000200258001C02580014025830B5184CAF
:105A5000154685B0046004F1080EEC460FC98EE8C7
:105A60000F00D4ED047AF5EEC07A8CE80F00F1EE69
:105A700010FA1ADDB7EE006A94ED057A27EE277A60
:105A8000C6EE276A84ED0D7AC4ED0C6A6DB120462E
:105A900040F8185F01F06AFB064903690020064AD6
:105AA0002162A262E36005B030BD012005B030BDC7
:105AB0003809002400200030000000300068083061
:105AC000704700BF0068183001F052BB064B302011
:105AD00003214FF07E52C3E90201002000211A6128
